CC19401495969C201608020000000520000000023101512193T06V02                                                                                                                                                
DD1940149596900000220152879CANO MEJIA JORGE KEYLER       2016080220160331000000000042000000000000000781000000000042781111023172823EFECTIVO00000220152879TBJA  0006172823092355            0000000000    
DD1940149596900000220152879CANO MEJIA JORGE KEYLER       2016080220160430000000000042000000000000000592000000000042592111023172823EFECTIVO00000220152879TBJA  0006172823092355            0000000000    
DD1940149596900000220152879CANO MEJIA JORGE KEYLER       2016080220160531000000000042000000000000000397000000000042397111023172823EFECTIVO00000220152879TBJA  0006172823092355            0000000000    
DD1940149596900000220152879CANO MEJIA JORGE KEYLER       2016080220160630000000000042000000000000000208000000000042208111023172823EFECTIVO00000220152879TBJA  0006172823092355            0000000000    
DD1940149596900000320153834QUISPE VALENCIA XIMENA ALEXAND2016080220160816000000000044000000000000000000000000000044000194030045993EFECTIVO00000320153834730B  0000045993094447            0000000000    
DD1940149596900000220153047QUISPE VALENCIA DARIEL ALONSO 2016080220160816000000000040000000000000000000000000000040000194030046654EFECTIVO00000220153047730B  0000046654094529            0000000000    
DD1940149596900000320164136ORREAGA MENDOZA GRACE CAMILA  2016080220160816000000000044000000000000000000000000000044000194015069129EFECTIVO00000320164136715C  0000069129100916            0000000000    
DD1940149596900000320070962ANTIPORTA HUAMANYAURI STEFANNI2016080220160731000000000046500000000000000014000000000046514194032081107EFECTIVO00000320070962732D  0000081107102055            0000000000    
DD1940149596900000320070962ANTIPORTA HUAMANYAURI STEFANNI2016080220160816000000000044000000000000000000000000000044000194032081107EFECTIVO00000320070962732D  0000081107102055            0000000000    
DD1940149596900000320153814SANCHEZ GUTIERREZ DANIEL ALEJA2016080220160816000000000044000000000000000000000000000044000111023244238EFECTIVO00000320153814TBKY  0006244238102105            0000000000    
DD1940149596900000320164017ANTIPORTA MEDINA JERSON ABEL  2016080220160731000000000046500000000000000014000000000046514194032081560EFECTIVO00000320164017732D  0000081560102121            0000000000    
DD1940149596900000320164017ANTIPORTA MEDINA JERSON ABEL  2016080220160816000000000044000000000000000000000000000044000194032081560EFECTIVO00000320164017732D  0000081560102121            0000000000    
DD1940149596900000220152956GOMEZ DE LA CRUZ SALETH VALENT2016080220160816000000000040000000000000000000000000000040000194024092167EFECTIVO00000220152956724B  0000092167103143            0000000000    
DD1940149596900000320153857DELGADO ESPINOZA VICENTE MARTI2016080220160816000000000044000000000000000000000000000044000194047104242EFECTIVO00000320153857747C  0000104242104318            0000000000    
DD1940149596900000220152936MONTERO GONZALES SAHORY ANTUAN2016080220160731000000000042000000000000000013000000000042013194030112020EFECTIVO00000220152936730E  0000112020105014            0000000000    
DD1940149596900000320102465RAMOS CAMPOS DIEGO IGNACIO    2016080220160816000000000044000000000000000000000000000044000194049125593EFECTIVO00000320102465749D  0000125593110252            0000000000    
DD1940149596900000320153973CASO LUQUE STEVE HARRIS       2016080220160816000000000044000000000000000000000000000044000194025130026EFECTIVO00000320153973725F  0000130026110652            0000000000    
DD1940149596900000220132472QUISPE BARRANTES ADRIEL AXEL  2016080220160731000000000042000000000000000013000000000042013194032139111EFECTIVO00000220132472732H  0000139111111524            0000000000    
DD1940149596900000320164031HUAMANI SIERRA JOSUE MATIAS   2016080220160630000000000046500000000000000230000000000046730194030204702EFECTIVO00000320164031730D  0000204702121608            0000000000    
DD1940149596900000320164031HUAMANI SIERRA JOSUE MATIAS   2016080220160731000000000046500000000000000014000000000046514194030204702EFECTIVO00000320164031730D  0000204702121608            0000000000    
DD1940149596900000320164055HUAMANI SIERRA DAYHER ABRAHAM 2016080220160630000000000046500000000000000230000000000046730194030205217EFECTIVO00000320164055730D  0000205217121630            0000000000    
DD1940149596900000320164055HUAMANI SIERRA DAYHER ABRAHAM 2016080220160731000000000046500000000000000014000000000046514194030205217EFECTIVO00000320164055730D  0000205217121630            0000000000    
DD1940149596900000320091949FERREL RAMIREZ BRUNO AARON    2016080220160731000000000046500000000000000014000000000046514194030223188EFECTIVO00000320091949730E  0000223188123226            0000000000    
DD1940149596900000320112736POZO HORNA SEBASTIAN HERNAN   2016080220160731000000000046500000000000000014000000000046514111017459588EFECTIVO00000320112736PZCC  0006459588124404            0000000000    
DD1940149596900000220142696POZO HORNA ENZO MAURICIO      2016080220160731000000000042000000000000000013000000000042013111017461845EFECTIVO00000220142696PZCA  0006461845124539            0000000000    
DD1940149596900000320164116HERENCIA CHOROCO CAMILA MARIA 2016080220160630000000000046500000000000000230000000000046730194047242644EFECTIVO00000320164116747A  0000242644125116            0000000000    
DD1940149596900000320164116HERENCIA CHOROCO CAMILA MARIA 2016080220160731000000000046500000000000000014000000000046514194047242644EFECTIVO00000320164116747A  0000242644125116            0000000000    
DD1940149596900000320112535HUAMAN ORTIZ JEREMY ANDERSON M2016080220160731000000000046500000000000000014000000000046514193097250823EFECTIVO00000320112535897A  0000250823125935            0000000000    
DD1940149596900000320164115ALEGRE QUISPE AARON ADOLFO    2016080220160731000000000046500000000000000014000000000046514111017517561EFECTIVO00000320164115PZAD  0006517561132346            0000000000    
DD1940149596900000320071076CASTRO MANRIQUE FABRIZZIO ANTO2016080220160816000000000044000000000000000000000000000044000193000301907EFECTIVO000003200710768CTA  0000301907135335            0000000000    
DD1940149596900000320112607AGUIRRE MATTO LUCERO STEPHANIE2016080220160731000000000046500000000000000014000000000046514111017572797EFECTIVO00000320112607PZAC  0006572797140709            0000000000    
DD1940149596900000320143606FLORES TORRES ROSAURA PAULINA 2016080220160816000000000044000000000000000000000000000044000194030366252EFECTIVO00000320143606730A  0000366252150513            0000000000    
DD1940149596900000320071126PADILLA LUPA ARIANA ESPERANZA 2016080220160731000000000046500000000000000014000000000046514000087438179EFECTIVO00000320071126087C  0000438179161925            0000000000    
DD1940149596900000320123096PADILLA LUPA VALERIA DEL CARME2016080220160731000000000046500000000000000014000000000046514000087438843EFECTIVO00000320123096087C  0000438843162002            0000000000    
DD1940149596900000320153843LAURENTE NAVARRO SOFIA        2016080220160531000000000046500000000000000439000000000046939000054484765EFECTIVO00000320153843054C  0000484765170102            0000000000    
DD1940149596900000320164162ZERPA TUESTA CATERINA         2016080220160731000000000046500000000000000014000000000046514111017839479EFECTIVO00000320164162PZCA  0006839479172806            0000000000    
DD1940149596900000220152931CACERES GARCIA THIAGO JOAQUIN 2016080220160630000000000042000000000000000208000000000042208111017873864EFECTIVO00000220152931PZBD  0006873864174817            0000000000    
DD1940149596900000320102318SAIRITUPA PEREA DAYHANA ANDREA2016080220160630000000000046500000000000000230000000000046730111017937506EFECTIVO00000320102318PZAE  0006937506182459            0000000000    
DD1940149596900000320153873SAIRITUPA PEREA NATALI        2016080220160630000000000046500000000000000230000000000046730111017939714EFECTIVO00000320153873PZAC  0006939714182615            0000000000    
DD1940149596900000320163998GONZALES SILVA TIZIANA ASSILEM2016080220160816000000000044000000000000000000000000000044000111017969163EFECTIVO00000320163998PZDD  0006969163184329            0000000000    
DD1940149596900000320143576OSORIO RAMIREZ DENIS ORLANDO J2016080220160816000000000044000000000000000000000000000044000111017010636EFECTIVO00000320143576PZDA  0000010636190850            0000000000    
DD1940149596900000320164131SABALU QUINONES ANGELES NAOMY 2016080220160731000000000046500000000000000014000000000046514111017048323EFECTIVO00000320164131PZBC  0000048323193326            0000000000    
DD1940149596900000220142788SANCHEZ LUCERO DANA MILAGROS  2016080220160816000000000040000000000000000000000000000040000111017075026EFECTIVO00000220142788PZCC  0000075026195241            0000000000    
DD1940149596900000320143734MARTINEZ DE LA CRUZ STEPHANO D2016080220160816000000000044000000000000000000000000000044000111023126978EFECTIVO00000320143734TBX0  0000126978203849            0000000000    
DD1940149596900000320153935DE LA O VASQUEZ CAMILA KAHORY 2016080220160816000000000044000000000000000000000000000044000111017152121EFECTIVO00000320153935PZBA  0000152121210936            0000000000    
DD1940149596900000320112672VINA VINA MAYCOL HUGO         2016080120160731000000000046500000000000000007000000000046507111017009208EFECTIVO00000320112672PZAD  0009009208205616            0000000000    
DD1940149596900000320112726CALDERON GUZMAN JHULYANA BRITT2016080120160630000000000046500000000000000223000000000046723111017041114EFECTIVO00000320112726PZBA  0009041114213746            0000000000    
DD1940149596900000320112726CALDERON GUZMAN JHULYANA BRITT2016080120160731000000000046500000000000000007000000000046507111017041943EFECTIVO00000320112726PZBA  0009041943213909            0000000000    
DD1940149596900000220152905ROBLES MATTOS MARIEL DAMARA   2016080120160630000000000042000000000000000202000000000042202111017044122EFECTIVO00000220152905PZBA  0009044122214238            0000000000    
DD1940149596900000220152904ROBLES MATTOS PAOLO ANDRES    2016080120160630000000000042000000000000000202000000000042202111017045224EFECTIVO00000220152904PZBA  0009045224214427            0000000000    
DD1940149596900000220142829MONCADA CUYA MADDOX DANIEL    2016080120160816000000000040000000000000000000000000000040000111023050751EFECTIVO00000220142829TBRL  0009050751215420            0000000000    
DD1940149596900000220142763SALAZAR MATOS FATIMA JIMENA   2016080120160816000000000040000000000000000000000000000040000111023055694EFECTIVO00000220142763TBK4  0009055694220431            0000000000    
