CC19401128277C201612090000000860000000038653852194T06V02                                                                                                                                                
DD1940112827700000420042268GUTIERREZ CHALCO ROSA NICOLE  2016120920161216000000000045000000000000000000000000000045000111023762065EFECTIVO00000420042268TBJB  0006762065082305            0000000000    
DD1940112827700000120126677CHARRI PAICO TATIANA LIDIA    2016120920161216000000000044000000000000000000000000000044000111017789880EFECTIVO00000120126677PZBA  0006789880090202            0000000000    
DD1940112827700000520157550CORRALES ALAVI VANIA MAYTE    2016120920161216000000000040000000000000000000000000000040000111023802390EFECTIVO00000520157550TBKE  0006802390091412            0000000000    
DD1940112827700000520147313LUJAN ESPINOZA SAUL PABLO SEBA2016120920161216000000000044000000000000000000000000000044000000023202427EFECTIVO00000520147313023B  0000202427094545            0000000000    
DD1940112827700000520147226ARGOTE BASOMBRIO XIMENA DEL RO2016120920161216000000000044000000000000000000000000000044000194063208996EFECTIVO00000520147226763B  0000208996095131            0000000000    
DD1940112827700000520147225ARGOTE BASOMBRIO RODRIGO MARTI2016120920161216000000000044000000000000000000000000000044000194063209507EFECTIVO00000520147225763B  0000209507095201            0000000000    
DD1940112827700000120147291ARGOTE BASOMBRIO CATALINA FLOR2016120920161216000000000044000000000000000000000000000044000194063210305EFECTIVO00000120147291763B  0000210305095246            0000000000    
DD1940112827700000420165989BANCES LOVERA XIOMARA PAOLA   2016120920161130000000000047500000000000000064000000000047564111023860005EFECTIVO00000420165989TBJU  0006860005100141            0000000000    
DD1940112827700000520147284CHAMBI RODRIGUEZ MICHAEL ALESS2016120920161216000000000040000000000000000000000000000040000194047222417EFECTIVO00000520147284747C  0000222417100406            0000000000    
DD1940112827700000520147285CHAMBI RODRIGUEZ FABIANA      2016120920161216000000000044000000000000000000000000000044000194047222942EFECTIVO00000520147285747C  0000222942100436            0000000000    
DD1940112827700000120147293ESPINOZA MARCELO XIOMARA ALEXA2016120920161216000000000044000000000000000000000000000044000111017872558EFECTIVO00000120147293PZDB  0006872558101107            0000000000    
DD1940112827700000520167912ESCAMILLA ROSILLO JOSE DANIEL 2016120920170327000000000085000000000000000000000000000085000194066259432EFECTIVO00000520167912766C  0000259432103551            0000000000    
DD1940112827700000120167715CASTILLO PENA GEORYERI ADRIANA2016120920161216000000000044000000000000000000000000000044000111023914779EFECTIVO00000120167715TBKZ  0006914779104038            0000000000    
DD1940112827700000120084535MENDOZA CARBONEL DANUSKA ANAHI2016120920161216000000000045000000000000000000000000000045000111017928421EFECTIVO00000120084535PZBC  0006928421105049            0000000000    
DD1940112827700000120147282PALOMINO FLORES ANGIE LUCIA   2016120920161216000000000045000000000000000000000000000045000194040283932EFECTIVO00000120147282740B  0000283932105636            0000000000    
DD1940112827700000520147205CANO FLORES GLORIA MARIA      2016120920161216000000000044000000000000000000000000000044000194040284335EFECTIVO00000520147205740B  0000284335105656            0000000000    
DD1940112827700000520105675VILLENA CCOILLO NICOLE FATIMA 2016120920161130000000000046500000000000000063000000000046563000021295437EFECTIVO00000520105675021C  0000295437110712            0000000000    
DD1940112827700000520157573ROJAS BAYONA LUCIANA ISABEL   2016120920161216000000000044000000000000000000000000000044000193000296752EFECTIVO000005201575738PLD  0000296752110831            0000000000    
DD1940112827700000520115899GARCIA MONCADA SEBASTHIAN JOAN2016120920161130000000000046500000000000000063000000000046563194025320865EFECTIVO00000520115899725B  0000320865112958            0000000000    
DD1940112827700000520115899GARCIA MONCADA SEBASTHIAN JOAN2016120920161216000000000044000000000000000000000000000044000194025321291EFECTIVO00000520115899725B  0000321291113020            0000000000    
DD1940112827700000520115941GARCIA MONCADA MATHIAS ORLANDO2016120920161130000000000046500000000000000063000000000046563194025321850EFECTIVO00000520115941725B  0000321850113046            0000000000    
DD1940112827700000520115941GARCIA MONCADA MATHIAS ORLANDO2016120920161216000000000044000000000000000000000000000044000194025321850EFECTIVO00000520115941725B  0000321850113046            0000000000    
DD1940112827700000420165928VEGA SIVIPAUCAR ROSMERY       2016120920161216000000000045000000000000000000000000000045000194024324186EFECTIVO00000420165928724D  0000324186113242            0000000000    
DD1940112827700000520147166ALVARADO BARRIENTOS JULIO  ISA2016120920161216000000000044000000000000000000000000000044000194066330047EFECTIVO00000520147166766C  0000330047113805            0000000000    
DD1940112827700000420155865NARVAEZ BUSTOS ANGIE CRISTINA 2016120920161216000000000045000000000000000000000000000045000194066341453EFECTIVO00000420155865766A  0000341453114806            0000000000    
DD1940112827700000520115977VALENZUELA VASQUEZ IOAN ALEXAN2016120920161216000000000044000000000000000000000000000044000111023087635EFECTIVO00000520115977TBKZ  0007087635124241            0000000000    
DD1940112827700000120084821LUIS SAIRE ANDERSSON FRANCESCO2016120920160930000000000024500000000000000257000000000024757111017105875EFECTIVO00000120084821PZCC  0007105875125605            0000000000    
DD1940112827700000520126343ORTIZ MALLMA FABIAN IVAN      2016120920161216000000000044000000000000000000000000000044000111017107651EFECTIVO00000520126343PZCA  0007107651125720            0000000000    
DD1940112827700000420155710MARTINEZ MELENDEZ ANGEL ISMAEL2016120920161130000000000047500000000000000064000000000047564111017122075EFECTIVO00000420155710PZAB  0007122075130727            0000000000    
DD1940112827700000120126663HUAMANI NARVAEZ FABIOLA LETICI2016120920161216000000000045000000000000000000000000000045000194030433520EFECTIVO00000120126663730F  0000433520131941            0000000000    
DD1940112827700000520157517CORRALES UQUICHE REBECA       2016120920161216000000000040000000000000000000000000000040000111017143096EFECTIVO00000520157517PZBA  0007143096132230            0000000000    
DD1940112827700000120074231RAMOS POMA BRITNEY EMELY      2016120920161216000000000044000000000000000000000000000044000194032450141EFECTIVO00000120074231732B  0000450141133912            0000000000    
DD1940112827700000120167807PARINO GALICIA ENRIQUE ANTONIO2016120920170328000000000046500000000000000000000000000046500111023168345EFECTIVO00000120167807TBOC  0007168345134122            0000000000    
DD1940112827700000120167804PARINO GALICIA CARLOS HUMBERTO2016120920170328000000000046500000000000000000000000000046500111023170857EFECTIVO00000120167804TBOD  0007170857134329            0000000000    
DD1940112827700000420053093LOZANO GIRON RAQUEL ISABEL    2016120920161216000000000045000000000000000000000000000045000194032456537EFECTIVO00000420053093732B  0000456537134716            0000000000    
DD1940112827700000520147092HUILLCAS ROMANI YARENI MARIEL 2016120920161216000000000044000000000000000000000000000044000111023185209EFECTIVO00000520147092TBJV  0007185209135713            0000000000    
DD1940112827700000120157660VALENTIN MELGAREJO HENRY RUBEN2016120920161216000000000045000000000000000000000000000045000194032466979EFECTIVO00000120157660732C  0000466979140010            0000000000    
DD1940112827700000420053122HUAMAN ESTRADA DAVID ANGELO   2016120920161216000000000045000000000000000000000000000045000194012468683EFECTIVO00000420053122712A  0000468683140211            0000000000    
DD1940112827700000120147089HUAMAN ESTRADA NICOLE ALEXANDR2016120920161216000000000045000000000000000000000000000045000194012469316EFECTIVO00000120147089712A  0000469316140254            0000000000    
DD1940112827700000520147152MENDOZA URBINA DARLA GUADALUPE2016120920161216000000000040000000000000000000000000000040000111023198644EFECTIVO00000520147152TBY6  0007198644140908            0000000000    
DD1940112827700000120126234TORRES GONZALES ANDREA CELESTE2016120920161031000000000046500000000000000272000000000046772111023285523EFECTIVO00000120126234TBYO  0007285523152439            0000000000    
DD1940112827700000120126234TORRES GONZALES ANDREA CELESTE2016120920161130000000000046500000000000000063000000000046563111023285523EFECTIVO00000120126234TBYO  0007285523152439            0000000000    
DD1940112827700000120126234TORRES GONZALES ANDREA CELESTE2016120920161216000000000044000000000000000000000000000044000111023285523EFECTIVO00000120126234TBYO  0007285523152439            0000000000    
DD1940112827700000420155869FLORES CARITA CHRISTIAN       2016120920161216000000000045000000000000000000000000000045000111017312360EFECTIVO00000420155869PZDA  0007312360154604            0000000000    
DD1940112827700000120147288LAZARO BARRETO ADRIAN ENRIQUE 2016120920161216000000000044000000000000000000000000000044000194025563735EFECTIVO00000120147288725D  0000563735155110            0000000000    
DD1940112827700000120052864RUIZ JULCA ANA CECILIA        2016120920161216000000000044000000000000000000000000000044000111023346626EFECTIVO00000120052864TBKY  0007346626161122            0000000000    
DD1940112827700000120063769SOSA GARCIA MARIA FERNANDA    2016120920161216000000000045000000000000000000000000000045000111023347947EFECTIVO00000120063769TBKY  0007347947161222            0000000000    
DD1940112827700000120126683SOSA GARCIA STEPHANIE MILAGROS2016120920161216000000000044000000000000000000000000000044000111023348876EFECTIVO00000120126683TBKY  0007348876161305            0000000000    
DD1940112827700000120084602RODRIGUEZ LAREDO DIEGO BRAYAN 2016120920161216000000000045000000000000000000000000000045000000047585591EFECTIVO00000120084602047D  0000585591161320            0000000000    
DD1940112827700000120116182SOSA GARCIA GRACIA VALERIA    2016120920161216000000000044000000000000000000000000000044000111023349870EFECTIVO00000120116182TBKY  0007349870161348            0000000000    
DD1940112827700000420166007ZAPATA PAIPAY ALISON VICTORIA 2016120920161216000000000045000000000000000000000000000045000194030588144EFECTIVO00000420166007730A  0000588144161553            0000000000    
DD1940112827700000120147159RAMIREZ SIHUE ALEXANDRA PAMELA2016120920161216000000000045000000000000000000000000000045000111023353010EFECTIVO00000120147159TBJU  0007353010161643            0000000000    
DD1940112827700000120136953BRAVO SALINAS YURICO LOURDES  2016120920161216000000000045000000000000000000000000000045000111017362977EFECTIVO00000120136953PZAB  0007362977162349            0000000000    
DD1940112827700000120147303ROJAS NAVARRO ITAN GABRIEL    2016120920161216000000000044000000000000000000000000000044000111017374996EFECTIVO00000120147303PZAA  0007374996163216            0000000000    
DD1940112827700000520136916CERRON MENDEZ FREDERICK DANIEL2016120920161130000000000046500000000000000063000000000046563194024622344EFECTIVO00000520136916724A  0000622344164808            0000000000    
DD1940112827700000520136916CERRON MENDEZ FREDERICK DANIEL2016120920161216000000000044000000000000000000000000000044000194024622344EFECTIVO00000520136916724A  0000622344164808            0000000000    
DD1940112827700000520136915CERRON MENDEZ SEBASTIAN       2016120920161130000000000046500000000000000063000000000046563194024622743EFECTIVO00000520136915724A  0000622743164830            0000000000    
DD1940112827700000520136915CERRON MENDEZ SEBASTIAN       2016120920161216000000000044000000000000000000000000000044000194024622743EFECTIVO00000520136915724A  0000622743164830            0000000000    
DD1940112827700000520167768CASTANEDA ALARCON CARLOS MATHI2016120920161216000000000040000000000000000000000000000040000111017424686EFECTIVO00000520167768PZCC  0007424686170519            0000000000    
DD1940112827700000520167769CASTANEDA ALARCON URSULA VALEN2016120920161216000000000040000000000000000000000000000040000111017425982EFECTIVO00000520167769PZCA  0007425982170610            0000000000    
DD1940112827700000120116202MAYHUA MEZA LEYLY VICTORIA    2016120920161216000000000044000000000000000000000000000044000111017472140EFECTIVO00000120116202PZCA  0007472140173448            0000000000    
DD1940112827700000120167667DOMINGUEZ ARAGON ADRIANA DENIS2016120920161216000000000045000000000000000000000000000045000194063694317EFECTIVO00000120167667763C  0000694317174829            0000000000    
DD1940112827700000520116072PIMENTEL DONAYRE GUIOVANI ALEX2016120920161031000000000046500000000000000272000000000046772000159715306EFECTIVO00000520116072159B  0000715306180524            0000000000    
DD1940112827700000520116072PIMENTEL DONAYRE GUIOVANI ALEX2016120920161130000000000046500000000000000063000000000046563000159715306EFECTIVO00000520116072159B  0000715306180524            0000000000    
DD1940112827700000520116072PIMENTEL DONAYRE GUIOVANI ALEX2016120920161216000000000044000000000000000000000000000044000000159715306EFECTIVO00000520116072159B  0000715306180524            0000000000    
DD1940112827700000420155760VILLANUEVA CONDORCHUA VERONICA2016120920160930000000000047500000000000000499000000000047999194032719786EFECTIVO00000420155760732C  0000719786180940            0000000000    
DD1940112827700000420155760VILLANUEVA CONDORCHUA VERONICA2016120920161031000000000047500000000000000278000000000047778194032719786EFECTIVO00000420155760732C  0000719786180940            0000000000    
DD1940112827700000420155760VILLANUEVA CONDORCHUA VERONICA2016120920161130000000000047500000000000000064000000000047564194032719786EFECTIVO00000420155760732C  0000719786180940            0000000000    
DD1940112827700000420166051VILLANUEVA CONDORCHUA AXEL    2016120920160930000000000047500000000000000499000000000047999194032721442EFECTIVO00000420166051732C  0000721442181128            0000000000    
DD1940112827700000120084623HERRERA PRADO MAGALY ALEJANDRA2016120920161216000000000045000000000000000000000000000045000111017584375EFECTIVO00000120084623PZAA  0007584375184119            0000000000    
DD1940112827700000520126440GARRIAZO CANALES MILDER       2016120920161130000000000046500000000000000063000000000046563111017658631EFECTIVO00000520126440PZAA  0000658631192713            0000000000    
DD1940112827700000120136909PINTO VEGA IMANOL SEBASTIAN   2016120920161216000000000045000000000000000000000000000045000111017668927EFECTIVO00000120136909PZCA  0000668927193352            0000000000    
DD1940112827700000420166079FLORES CHAMBA JOSE            2016120820161216000000000045000000000000000000000000000045000111017121057EFECTIVO00000420166079PZCA  0006121057090948            0000000000    
DD1940112827700000120147081VILLANO GARCIA DIANELLA       2016120820161216000000000044000000000000000000000000000044000111023178302EFECTIVO00000120147081TBKZ  0006178302102047            0000000000    
DD1940112827700000120136852VILLANO GARCIA MIGUEL ANGEL   2016120820161216000000000045000000000000000000000000000045000111023179317EFECTIVO00000120136852TBKZ  0006179317102148            0000000000    
DD1940112827700000120167671CERVANTES NINAQUISPE CAMILA YA2016120820161216000000000044000000000000000000000000000044000111017203746EFECTIVO00000120167671PZBA  0006203746104645            0000000000    
DD1940112827700000120136889YUCTA TAVARA YERET            2016120820161216000000000044000000000000000000000000000044000111017204629EFECTIVO00000120136889PZCA  0006204629104738            0000000000    
DD1940112827700000520126352FLORES VILLALTA LUCYA  ALESSAN2016120820161130000000000046500000000000000056000000000046556111023390233EFECTIVO00000520126352TBY4  0006390233141113            0000000000    
DD1940112827700000520126647GUERRERO PINGLO JEANPIERRE NAD2016120820161216000000000044000000000000000000000000000044000111023467521EFECTIVO00000520126647TBJA  0006467521161204            0000000000    
DD1940112827700000120157551GABRIEL CAMARENA LORIEN ALISON2016120820161216000000000045000000000000000000000000000045000111023557879EFECTIVO00000120157551TBJ1  0006557879181914            0000000000    
DD1940112827700000420053013CALDERON MORE JIMENA ANDREA   2016120820161216000000000045000000000000000000000000000045000111017618659EFECTIVO00000420053013PZDA  0009618659193927            0000000000    
DD1940112827700000120157451HUAMAN HUILLCA LUIS EDUARDO   2016120820161130000000000046500000000000000056000000000046556111017650478EFECTIVO00000120157451PZCA  0009650478202353            0000000000    
DD1940112827700000520157580SANTI TUESTA VICTOR ISIDRO    2016120820161216000000000044000000000000000000000000000044000111023653964EFECTIVO00000520157580TBJU  0009653964202925            0000000000    
DD1940112827700000120136799VALDEZ SIERRA RUBEN DARIO     2016120820161216000000000045000000000000000000000000000045000111023674557EFECTIVO00000120136799TBXK  0009674557210757            0000000000    
DD1940112827700000420155898MENACHO HUAYTAN ANDY ELLIOT   2016120820161216000000000045000000000000000000000000000045000111023689312EFECTIVO00000420155898TBX0  0009689312214340            0000000000    
DD1940112827700000520126350MENACHO HUAYTAN ANTONELLA FERN2016120820161216000000000044000000000000000000000000000044000111023690619EFECTIVO00000520126350TBX0  0009690619214729            0000000000    
